:020000020000FC
:0200000020C01E
:02000400ACC18D
:100034007DC10FEF04B900EE0AB90EE307B98CE3F2
:1000440090E0FAD02030D1F12530B9F500E20093E8
:100054007C0007E800937A000FE304B900EE0AB9C4
:1000640000E007B959985D9807EC00937A00009175
:100074007A0004FFFCCF07ED00937A002091790009
:100084000EEF07B92C3450F0203868F08CF409B125
:1000940003FD19C061E04BE0F5D0E2CF28E14398BD
:1000A4004498459AF4CF20E14398449A459AEFCF77
:1000B40028E0439A449A459AEACF4EC08CE390E0F4
:1000C40025E0B0D0C3CF0EEF04B903EE0AB90EE3B6
:1000D40007B9589A5F9A22D05F9809D002D02CD0E1
:1000E400F2CFC21708F00895589836C0089540E03A
:1000F4004093800045EC4093810056B355FFFDCFFB
:100104000091860056BB45E84093810056B355FFE5
:10011400FDCFC0918600C01B56BB0895442746BD41
:1001240044E147BD4AE045BD45B341FFFDCF442707
:1001340045BD42E045BB08955FEF6FEF72E37A95EA
:10014400F1F76A95D9F75A95C1F708950FEF04B9F5
:1001540003EE0AB90EE307B9F89404E000938100B2
:1001640000E0009385000093840001E000936F0099
:1001740001E00DBB03E000936900789430E05D98E2
:1001840009B104FF17C009B103FF23C06FD08CE38A
:1001940090E052D0203069F1022F5FD073D072D03A
:1001A40071D075E052D0419A30FD02C0429AE8CF36
:1001B4004298E6CF419800E00093850000938400C4
:1001C40030E060E04AE05ED05DD05CD05BD05AD0D5
:1001D400D7CF419800E0009385000093840030E07D
:1001E4008CE390E029D02530B9F0022F36D04AD0E4
:1001F400C7CF599A5D9A419800E000938500009317
:10020400840030E08CE390E017D0022F26D03AD05F
:1002140009B103FF01C0B4CF59985D98589841982B
:1002240042980DCFF999FECF92BD81BD20BDFA9AB7
:10023400F99A75E00AD00895F999FECF92BD81BD6F
:10024400F89A75E002D020B508958EEC97E00197F6
:10025400F1F77A95D1F70000089520E00A301CF4F4
:10026400602F422F089523950A50F8CF32300CF4B2
:1002740008958CE390E0E0DF2A958CE390E0D2DFF0
:1002840030E00895262F21D010D02B9A2C9A75E0B7
:10029400DCDF2C982B98242F18D007D02B9A2D9A7A
:1002A40075E0D3DF2D982B98089508E050FD0BC01E
:1002B4002A9A71E0CADF2A98299871E0C6DF569518
:1002C4000A95A1F70895299AF3CF2030B9F0213087
:1002D400B9F02230B9F02330B9F02430B9F0253028
:1002E400B9F02630B9F02730B9F02830B9F0293008
:1002F400B9F02A30B9F02B30B9F0089551E00895DF
:100304005FE4089552E1089556E008955CE4089589
:1003140054E2089550E208955FE0089550E008958E
:1003240054E0089550E3089558E408950F932F93EB
:100334005F936F934F937F938F939F9300E000930A
:1003440085000093840033959F918F917F914F9105
:100354006F915F912F910F9118950F932F935F9346
:100364006F934F937F938F939F938CE390E025E05B
:1003740059DF30E05D989F918F917F914F916F91FC
:080384005F912F910F91189574
:00000001FF
